:100000000C9475000C941F020C9492000C949200B6
:100010000C9492000C9492000C9492000C94920018
:100020000C9492000C9492000C9492000C94920008
:100030000C9492000C9492000C94A4030C949200E3
:100040000C9492000C9492000C9492000C949200E8
:100050000C9492000C9492000C9492000C949200D8
:100060000C9492000C9492000403090410420001C5
:1000700001021406FFFFFFFFFFFFFFFF0902200040
:1000800001010080FA09040000025842000007053F
:1000900082032000040705020320000458006200C8
:1000A0006F007800200043006F006E007400720043
:1000B0006F006C006C00650072004D006900630009
:1000C00072006F0073006F00660074002000430030
:1000D0006F00720070002E00120110010000000875
:1000E0005E04020200010000000111241FBECFEFD8
:1000F000D8E0DEBFCDBF11E0A0E0B1E0ECE4FCE071
:1001000002C005900D92A832B107D9F721E0A8E20C
:10011000B1E001C01D92A13CB207E1F70E94970532
:100120000C9424060C9400001F93CF93DF93162F9A
:10013000EA01288124FF17C0298138E82327298371
:10014000212FFC01CE010296DC0131913D9321501B
:100150001216DCF3612F0E941B021C5F1883DF91D3
:10016000CF911F9108952AE52883EACF40E451E01A
:100170000C94940044E851E00C949400CF93DF93E6
:1001800060916A01635067FDAEC080916701CCE069
:10019000D0E0C81BD109C259DE4F809166018D3273
:1001A00009F001C1683009F09CC083EC80933501EF
:1001B0008AE580930101109265018881807679F04B
:1001C000CE010E944B038F3F09F483C09F819111A0
:1001D00086C09E81981708F082C0892F80C02A812E
:1001E00010923E01998191110AC010923F012EE3B5
:1001F00031E082E03093690120936801E7CF9530C8
:1002000029F420936B012EE331E0F4CF963009F00E
:1002100047C09B81913059F488ED90E0909369013B
:100220008093680182E190E490936501CFCF923092
:1002300041F48CE790E0909369018093680180E23B
:10024000F2CF9330C9F4211108C088E690E0909372
:1002500069018093680184E0E6CF213041F48AEBA4
:1002600090E090936901809368018FE0DCCF2230A9
:10027000D1F68CE990E0F5CF913241F48EE890E030
:10028000909369018093680189E0CDCF923259F64D
:100290008CE690E0909369018093680180E1C3CF80
:1002A000983081F0993019F420936D01ACCF9A30D9
:1002B00069F09B3009F0A7CF9BE4909341019093A4
:1002C0008501A1CF2DE631E081E094CF2EE331E02E
:1002D000FBCF988197FD8E8190E890936501809384
:1002E000000110926A018091010184FF47C0809152
:1002F00000018F3F09F442C0C82F893008F0C8E0E0
:10030000982F9C1B909300019091350128E892272B
:1003100090933501882329F18091680190916901BA
:1003200020916501AC014553514026FF4FC0A5E324
:10033000B1E02C2FFA01EA0FFB1FE4911196EC9328
:100340001197215011962111F5CF9C012F5F3F4F3E
:100350008FEF8C0F820F932F911D909369018093E3
:1003600068016C2F86E391E00E941B02CC5FCC30C9
:1003700019F08FEF80930001C09301018AE099B1D9
:10038000947131F48150D9F710926B01109264018D
:1003900091E0811190E080912801981390932801B9
:1003A000DF91CF9108958091650187FF9ACFCE01AB
:1003B0000E9498038F3F21F48EE18093010191CF39
:1003C000882309F48ECF109200018BCFE5E3F1E092
:1003D0002C2FDA01AE0FBF1F3C9131832150319693
:1003E0002111F7CFB2CFE9E6F0E08081826080830F
:1003F000E89AA0E4B1E08BE411968C931197E4E8BD
:10040000F1E081838AE58C9380830895A82FB92F2A
:1004100080E090E041E050EA609530E009C02D9125
:1004200082279795879510F084279527305EC8F32B
:100430006F5FA8F30895EADF8D939D930895CF939E
:10044000CFB7CF93DF93C3954C9BE9F74C9B0BC081
:100450004C9B09C04C9B07C04C9B05C04C9B03C0E8
:100460004C9B01C08BC06F93C0916701DD27C259BF
:10047000DE4F2F9365E54C9B03C02F916F91E6CF24
:100480000F931F934F9320E040E15F9309B10471F4
:1004900004FB27F93F9350E03BE039C014714064FE
:1004A0002F77012F5F5F1EC0406819B114712F773D
:1004B00052501FC0406409B12F770471D1F15F5FC2
:1004C00000C023C0406219B12F77147191F15F5FB2
:1004D00000C025C004711027515012F45D5F000068
:1004E000115027952C3F19B1C8F6147101270150FE
:1004F00027952C3FC8F64227499309B1047110276C
:100500004F73115027952C3FA8F64695469519B183
:10051000147179F00127015027952C3F98F66B5AFA
:1005200060F3315009B1B0F600C011E01CBB0027E8
:1005300019C03B503195C31BD04011E01CBB088152
:10054000033C09F10B34F9F0209164011981110F7A
:100550001213EDCF4A81441F093651F10D3211F0CB
:10056000013E29F700936C013F915F914F911F91DC
:100570000F912F916F91CCB3C0FD65CFDF91CF91DB
:10058000CFBFCF91189500916C01002369F31091B2
:100590006A011123E9F53430EAF130936A010093DE
:1005A0006601109167013BE0311B3093670132C057
:1005B00000916A01013064F50AE54F7049F4309109
:1005C000010134FD28C000930101C5E3D1E027C03B
:1005D000423049F03091400134FD1DC0009340018C
:1005E000C1E4D1E01CC03091840136FD14C00093F9
:1005F0008401C5E8D1E013C0052710E000C0000069
:100600000BB91AC0052710E0221F1DC010E021C041
:100610004AE502C032ED432FC4E1D0E032E01AB126
:1006200014615C9A0BB11AB954E120E865E320FF2C
:1006300005270BB9279517951C3FF0F66695B8F777
:10064000B1F720FF05270BB9279517951C3FD0F66A
:100650002795179517FF052700001C3F0BB9B0F62B
:1006600029913A9519F70B7E10916B01110FC65124
:10067000D0400BB911F01093640111E01CBB006174
:100680001AB11B7E402F4B7E54E05A95F1F70BB9FF
:100690001AB94BB969CFFC018081813C59F5818140
:1006A000863079F48381823409F040C08CE690E092
:1006B000909369018093680180E48093650180E1F3
:1006C0000895813099F58381813051F427EA31E032
:1006D00030936901209368018093630184E1089558
:1006E000823021F58BEB91E0909369018093680152
:1006F00086E00895813A69F481818130B9F487EA0E
:1007000091E0909369018093680185B5856085BD0E
:10071000E5CF813259F48181893041F491E08381C0
:10072000823009F090E0892F8195089580E0089546
:10073000E9E2F1E0DC0113962C91139720831596E2
:100740008C91818381E008951F920F920FB60F92D2
:1007500011248F93EF93FF9381E080932B0180937B
:10076000630115BC82E085BBEEE6F0E080818D7F01
:100770008083FF91EF918F910F900FBE0F901F908C
:1007800018958EE78CBD81E08DBD84B18C6284B9F3
:1007900024982A9A08958EBD0DB407FEFDCF8EB51C
:1007A000089585E88A95F1F700000895FF920F9368
:1007B0001F93CF93DF93F62E2A98E7ECF0E0319762
:1007C000F1F700C000008C01C0E0D0E0CF110FC0F5
:1007D00087EC90E00197F1F700C000002A9AA895F5
:1007E0008D2FDF91CF911F910F91FF900895F80108
:1007F00081918F010E94CB03C13009F4D82FF5E815
:10080000FA95F1F70000CF5FE1CFA895ECE2F1E0B7
:1008100089E0DF011D928A95E9F72A9887EC90E03C
:100820000197F1F700C0000081E00E94CB038093A4
:100830002C0195E89A95F1F7000082E40E94CB0321
:1008400080932D01A5E8AA95F1F7000080912D0174
:10085000813431F0833721F02A9A8CE291E00895B7
:1008600080E00E94CB0380932E01B5E8BA95F1F7A2
:10087000000080912D018337E9F580912A010E94C3
:10088000CB0380932F0185E88A95F1F700008091D2
:1008900029010E94CB0380933001A5E8AA95F1F7C6
:1008A000000080E00E94CB0380933101B5E8BA9547
:1008B000F1F7000080E00E94CB038093320185E8CD
:1008C0008A95F1F7000080E00E94CB03809333010A
:1008D00095E89A95F1F7000080E00E94CB038093A1
:1008E0003401A7ECB0E01197F1F700C000002A9A9C
:1008F000A895B3CF80E00E94CB0380932F0195E8A9
:100900009A95F1F7000080E0C4CFBF92CF92DF92BA
:10091000EF92FF920F931F93CF93DF93CDB7DEB784
:10092000A8970FB6F894DEBF0FBECDBF8C01DB01D8
:1009300011965C91FE01319684E1DF01982F1D92A2
:100940009A95E9F78A835134C1F05337B1F0D80151
:1009500001900D928A95E1F7C801A8960FB6F89418
:10096000DEBF0FBECDBFDF91CF911F910F91FF90E2
:10097000EF90DF90CF90BF900895DE0155960190E3
:100980000D928A95E1F7DB0114964C9114974095EE
:100990001396EC91E095F0E09F0185E03595279561
:1009A0008A95E1F7CF0135E0880F991F3A95E1F775
:1009B000E4FB332730F9922F9670932B9F013595E6
:1009C0002795359527952870922BEE0FFF1FE07124
:1009D0009E2B282F2072922B282F2074922B807808
:1009E000982B46FBEE24E0F8E19445FBFF24F0F859
:1009F000F194D42EDD0CDD0844FBBB27B0F9B19592
:100A0000A42FA170A19541FBFF27F0F9CF2EC1942F
:100A100042FBEE27E0F9BE2EB19443FB442740F998
:100A200041955337E1F4FB01358130588681805878
:100A30008095578150582085205820959F8BE98EAE
:100A4000FA8EDB8EBC8FAD8FCE8EBF8E48A35AA39D
:100A50002CA33EA388A784E1FE01759678CF80E0A1
:100A600030E020E050E0EACF1F93CF93DF93CDB783
:100A7000DEB7A0970FB6F894DEBF0FBECDBF18E06B
:100A800085E0E2E0F1E0DE01119601900D928A9599
:100A9000E1F765E0CE0101960E94D603813471F042
:100AA000833761F0115061F7A0960FB6F894DEBF5E
:100AB0000FBECDBFDF91CF911F91089585E0E7E094
:100AC000F1E0DE015C9601900D928A95E1F789E0F4
:100AD000ECE0F1E0DE01539601900D928A95E1F78A
:100AE00089E0E5E1F1E0DE011A9601900D928A9528
:100AF000E1F789E0EEE1F1E0DE01119601900D925F
:100B00008A95E1F765E0CE014C960E94D60369E034
:100B1000CE0143960E94D60369E0CE010A960E9458
:100B2000D60369E0CE0101960E94D603BDCFCF93D4
:100B3000DF93CDB7DEB764970FB6F894DEBF0FBE74
:100B4000CDBF8FE19EE40197F1F700C0000088E17E
:100B50009EE00FB6F894A895809360000FBE909326
:100B6000600084E1E7EAF1E0DF01982F1D929A9599
:100B7000E9F78093A80186E0EBEBF1E0DF01982F25
:100B80001D929A95E9F78093BC0192E094BD15BC43
:100B90008BE987BD80916E00826080936E0016BCE9
:100BA00095BB0E94C1031092630110922B01F8942F
:100BB0000E94F301549A8FEF90E0A895AFE9BFE04F
:100BC0001197F1F700C000000197B9F70E943405B2
:100BD0005498789401ED17E080916301813019F009
:100BE0000150110939F51AEF80912B01811105C0CF
:100BF000A8950E94BE001150B9F7A8950E94BE00AA
:100C00008091840186FFF9CF0E940504BC01CE01CA
:100C100001960E94850484E1FE013196A7EAB1E0C5
:100C200001900D928A95E1F764E187EA91E00E94D4
:100C3000BA00E3CF0E94BE00A895EFE9FFE031972C
:0C0C4000F1F700C00000C8CFF894FFCF0F
:100C4C00FF5A014200000001430001000144000171
:100C5C000300000000014D000001FFFFFFFF0143F6
:080C6C0000005A5A5A5A5A00BE
:00000001FF
